{
  "abi": [
    {
      "inputs": [
        {
          "internalType": "address",
          "name": "_fxChild",
          "type": "address"
        }
      ],
      "stateMutability": "nonpayable",
      "type": "constructor"
    },
    {
      "anonymous": false,
      "inputs": [
        {
          "indexed": true,
          "internalType": "address",
          "name": "sender",
          "type": "address"
        },
        {
          "indexed": false,
          "internalType": "uint256",
          "name": "ratePerSecond",
          "type": "uint256"
        },
        {
          "indexed": false,
          "internalType": "uint256",
          "name": "depositTime",
          "type": "uint256"
        },
        {
          "indexed": false,
          "internalType": "uint256",
          "name": "tokenId",
          "type": "uint256"
        }
      ],
      "name": "FUBIDepositReceived",
      "type": "event"
    },
    {
      "anonymous": false,
      "inputs": [
        {
          "indexed": false,
          "internalType": "bytes",
          "name": "message",
          "type": "bytes"
        }
      ],
      "name": "MessageSent",
      "type": "event"
    },
    {
      "anonymous": false,
      "inputs": [
        {
          "indexed": true,
          "internalType": "address",
          "name": "previousOwner",
          "type": "address"
        },
        {
          "indexed": true,
          "internalType": "address",
          "name": "newOwner",
          "type": "address"
        }
      ],
      "name": "OwnershipTransferred",
      "type": "event"
    },
    {
      "anonymous": false,
      "inputs": [
        {
          "indexed": true,
          "internalType": "address",
          "name": "sender",
          "type": "address"
        },
        {
          "indexed": false,
          "internalType": "uint256",
          "name": "amount",
          "type": "uint256"
        },
        {
          "indexed": false,
          "internalType": "uint256",
          "name": "depositTime",
          "type": "uint256"
        }
      ],
      "name": "UBIDepositReceived",
      "type": "event"
    },
    {
      "inputs": [],
      "name": "FUBI_DEPOSIT",
      "outputs": [
        {
          "internalType": "bytes32",
          "name": "",
          "type": "bytes32"
        }
      ],
      "stateMutability": "view",
      "type": "function"
    },
    {
      "inputs": [],
      "name": "UBI_DEPOSIT",
      "outputs": [
        {
          "internalType": "bytes32",
          "name": "",
          "type": "bytes32"
        }
      ],
      "stateMutability": "view",
      "type": "function"
    },
    {
      "inputs": [],
      "name": "fxChild",
      "outputs": [
        {
          "internalType": "address",
          "name": "",
          "type": "address"
        }
      ],
      "stateMutability": "view",
      "type": "function"
    },
    {
      "inputs": [],
      "name": "fxRootTunnel",
      "outputs": [
        {
          "internalType": "address",
          "name": "",
          "type": "address"
        }
      ],
      "stateMutability": "view",
      "type": "function"
    },
    {
      "inputs": [],
      "name": "latestData",
      "outputs": [
        {
          "internalType": "bytes",
          "name": "",
          "type": "bytes"
        }
      ],
      "stateMutability": "view",
      "type": "function"
    },
    {
      "inputs": [
        {
          "internalType": "address",
          "name": "source",
          "type": "address"
        },
        {
          "internalType": "uint256",
          "name": "tokenId",
          "type": "uint256"
        },
        {
          "internalType": "uint256",
          "name": "ratePerSecond",
          "type": "uint256"
        }
      ],
      "name": "onCancelDelegation",
      "outputs": [],
      "stateMutability": "nonpayable",
      "type": "function"
    },
    {
      "inputs": [],
      "name": "owner",
      "outputs": [
        {
          "internalType": "address",
          "name": "",
          "type": "address"
        }
      ],
      "stateMutability": "view",
      "type": "function"
    },
    {
      "inputs": [
        {
          "internalType": "uint256",
          "name": "stateId",
          "type": "uint256"
        },
        {
          "internalType": "address",
          "name": "rootMessageSender",
          "type": "address"
        },
        {
          "internalType": "bytes",
          "name": "data",
          "type": "bytes"
        }
      ],
      "name": "processMessageFromRoot",
      "outputs": [],
      "stateMutability": "nonpayable",
      "type": "function"
    },
    {
      "inputs": [],
      "name": "renounceOwnership",
      "outputs": [],
      "stateMutability": "nonpayable",
      "type": "function"
    },
    {
      "inputs": [
        {
          "internalType": "address",
          "name": "_fxRootTunnel",
          "type": "address"
        }
      ],
      "name": "setFxRootTunnel",
      "outputs": [],
      "stateMutability": "nonpayable",
      "type": "function"
    },
    {
      "inputs": [
        {
          "internalType": "address",
          "name": "pUBI",
          "type": "address"
        }
      ],
      "name": "setUBI",
      "outputs": [],
      "stateMutability": "nonpayable",
      "type": "function"
    },
    {
      "inputs": [
        {
          "internalType": "address",
          "name": "newOwner",
          "type": "address"
        }
      ],
      "name": "transferOwnership",
      "outputs": [],
      "stateMutability": "nonpayable",
      "type": "function"
    }
  ],
  "bytecode": {
    "object": "0x608060405234801561001057600080fd5b50604051610e4a380380610e4a83398101604081905261002f916100b1565b600080546001600160a01b0319166001600160a01b0383161790556100596100543390565b61005f565b506100e1565b600280546001600160a01b038381166001600160a01b0319831681179093556040519116919082907f8be0079c531659141344cd1fd0a4f28419497f9722a3daafe3b4186f6b6457e090600090a35050565b6000602082840312156100c357600080fd5b81516001600160a01b03811681146100da57600080fd5b9392505050565b610d5a806100f06000396000f3fe608060405234801561001057600080fd5b50600436106100b45760003560e01c80638da5cb5b116100715780638da5cb5b146101455780639a7c4b7114610156578063a5a9af1614610169578063e18709f01461019e578063f2fde38b146101b1578063f7fc1685146101c457600080fd5b8063142bc2ae146100b9578063153c410e146100d7578063450d11f0146100ec578063715018a6146101175780637f1e9cb01461011f5780638883709414610132575b600080fd5b6100c16101eb565b6040516100ce9190610a46565b60405180910390f35b6100ea6100e5366004610a8e565b610279565b005b6000546100ff906001600160a01b031681565b6040516001600160a01b0390911681526020016100ce565b6100ea6103ac565b6001546100ff906001600160a01b031681565b6100ea610140366004610ac3565b6103e2565b6002546001600160a01b03166100ff565b6100ea610164366004610ae7565b610470565b6101907f495fc8a59f98537708f00012baab2617754c889cc3a3d654ccc32a6d596f4a1981565b6040519081526020016100ce565b6100ea6101ac366004610ac3565b610515565b6100ea6101bf366004610ac3565b610561565b6101907f0ea6d89ba54a5fc484765bf8a8ddc4556622a1ee350005f035f1d93b155e8d8181565b600480546101f890610b70565b80601f016020809104026020016040519081016040528092919081815260200182805461022490610b70565b80156102715780601f1061024657610100808354040283529160200191610271565b820191906000526020600020905b81548152906001019060200180831161025457829003601f168201915b505050505081565b6003546001600160a01b031633146102e95760405162461bcd60e51b815260206004820152602860248201527f4f6e6c792055424920636f6e74726163742063616e2063616e63656c2064656c60448201526765676174696f6e7360c01b60648201526084015b60405180910390fd5b604080516001600160a01b03851660208201529081018390526060810182905260800160408051601f198184030181529181528151602092830120600085815260059093529120541461036e5760405162461bcd60e51b815260206004820152600d60248201526c34b73b30b634b210383937b7b360991b60448201526064016102e0565b6000824260405160200161038c929190918252602082015260400190565b60405160208183030381529060405290506103a6816105fc565b50505050565b6002546001600160a01b031633146103d65760405162461bcd60e51b81526004016102e090610baa565b6103e06000610636565b565b6001546001600160a01b03161561044e5760405162461bcd60e51b815260206004820152602a60248201527f4678426173654368696c6454756e6e656c3a20524f4f545f54554e4e454c5f4160448201526913149150511657d4d15560b21b60648201526084016102e0565b600180546001600160a01b0319166001600160a01b0392909216919091179055565b6000546001600160a01b031633146104d45760405162461bcd60e51b815260206004820152602160248201527f4678426173654368696c6454756e6e656c3a20494e56414c49445f53454e44456044820152602960f91b60648201526084016102e0565b6103a6848484848080601f01602080910402602001604051908101604052809392919081815260200183838082843760009201919091525061068892505050565b6002546001600160a01b0316331461053f5760405162461bcd60e51b81526004016102e090610baa565b600380546001600160a01b0319166001600160a01b0392909216919091179055565b6002546001600160a01b0316331461058b5760405162461bcd60e51b81526004016102e090610baa565b6001600160a01b0381166105f05760405162461bcd60e51b815260206004820152602660248201527f4f776e61626c653a206e6577206f776e657220697320746865207a65726f206160448201526564647265737360d01b60648201526084016102e0565b6105f981610636565b50565b7f8c5261668696ce22758910d05bab8f186d6eb247ceac2af2e82c7dc17669b0368160405161062b9190610a46565b60405180910390a150565b600280546001600160a01b038381166001600160a01b0319831681179093556040519116919082907f8be0079c531659141344cd1fd0a4f28419497f9722a3daafe3b4186f6b6457e090600090a35050565b60015482906001600160a01b038083169116146106fb5760405162461bcd60e51b815260206004820152602b60248201527f4678426173654368696c6454756e6e656c3a20494e56414c49445f53454e444560448201526a1497d19493d357d493d3d560aa1b60648201526084016102e0565b600080838060200190518101906107129190610bf5565b915091507f495fc8a59f98537708f00012baab2617754c889cc3a3d654ccc32a6d596f4a19820361074b57610746816107da565b6107d2565b7f0ea6d89ba54a5fc484765bf8a8ddc4556622a1ee350005f035f1d93b155e8d81820361077b576107468161094f565b60405162461bcd60e51b815260206004820152602660248201527f46784552433732314368696c6454756e6e656c3a20494e56414c49445f53594e604482015265435f5459504560d01b60648201526084016102e0565b505050505050565b600080600080848060200190518101906107f49190610cae565b60008181526005602052604090205493975091955093509150156108525760405162461bcd60e51b81526020600482015260156024820152741d1bdad95b88185b1c9958591e48189c9a5919d959605a1b60448201526064016102e0565b604080516001600160a01b03861660208201529081018290526060810184905260800160408051808303601f1901815282825280516020918201206000858152600590925291902055600354630481efd360e41b82526001600160a01b03868116600484015260248301869052169063481efd3090604401600060405180830381600087803b1580156108e457600080fd5b505af11580156108f8573d6000803e3d6000fd5b505060408051868152602081018690529081018490526001600160a01b03871692507f6ea5ca1e6a8eb9935ee42ac6119e4a1d34bc356eaf0b6ee5c8234036d95cb3b8915060600160405180910390a25050505050565b6000806000838060200190518101906109689190610ced565b6003546040516340c10f1960e01b81526001600160a01b0380861660048301526024820185905294975092955090935091909116906340c10f1990604401600060405180830381600087803b1580156109c057600080fd5b505af11580156109d4573d6000803e3d6000fd5b505060408051858152602081018590526001600160a01b03871693507fa008fdfe0eda609d7b3c0950c79c7eb67dd8cd548c935ec86eb661159a50675392500160405180910390a250505050565b60005b83811015610a3d578181015183820152602001610a25565b50506000910152565b6020815260008251806020840152610a65816040850160208701610a22565b601f01601f19169190910160400192915050565b6001600160a01b03811681146105f957600080fd5b600080600060608486031215610aa357600080fd5b8335610aae81610a79565b95602085013595506040909401359392505050565b600060208284031215610ad557600080fd5b8135610ae081610a79565b9392505050565b60008060008060608587031215610afd57600080fd5b843593506020850135610b0f81610a79565b9250604085013567ffffffffffffffff80821115610b2c57600080fd5b818701915087601f830112610b4057600080fd5b813581811115610b4f57600080fd5b886020828501011115610b6157600080fd5b95989497505060200194505050565b600181811c90821680610b8457607f821691505b602082108103610ba457634e487b7160e01b600052602260045260246000fd5b50919050565b6020808252818101527f4f776e61626c653a2063616c6c6572206973206e6f7420746865206f776e6572604082015260600190565b634e487b7160e01b600052604160045260246000fd5b60008060408385031215610c0857600080fd5b82519150602083015167ffffffffffffffff80821115610c2757600080fd5b818501915085601f830112610c3b57600080fd5b815181811115610c4d57610c4d610bdf565b604051601f8201601f19908116603f01168101908382118183101715610c7557610c75610bdf565b81604052828152886020848701011115610c8e57600080fd5b610c9f836020830160208801610a22565b80955050505050509250929050565b60008060008060808587031215610cc457600080fd5b8451610ccf81610a79565b60208601516040870151606090970151919890975090945092505050565b600080600060608486031215610d0257600080fd5b8351610d0d81610a79565b60208501516040909501519096949550939250505056fea2646970667358221220d63530a0226670f74a761d1c4910fce2a365ac37b090d9e294d1d074b22abf7d64736f6c63430008110033",
    "linkReferences": {}
  },
  "methodIdentifiers": {
    "FUBI_DEPOSIT()": "a5a9af16",
    "UBI_DEPOSIT()": "f7fc1685",
    "fxChild()": "450d11f0",
    "fxRootTunnel()": "7f1e9cb0",
    "latestData()": "142bc2ae",
    "onCancelDelegation(address,uint256,uint256)": "153c410e",
    "owner()": "8da5cb5b",
    "processMessageFromRoot(uint256,address,bytes)": "9a7c4b71",
    "renounceOwnership()": "715018a6",
    "setFxRootTunnel(address)": "88837094",
    "setUBI(address)": "e18709f0",
    "transferOwnership(address)": "f2fde38b"
  },
  "id": 6
}