{
  "abi": [
    {
      "inputs": [
        {
          "internalType": "address",
          "name": "pChildTunnel",
          "type": "address"
        }
      ],
      "stateMutability": "nonpayable",
      "type": "constructor"
    },
    {
      "inputs": [],
      "name": "NotChildTunnel",
      "type": "error"
    },
    {
      "inputs": [],
      "name": "OnlyGovernance",
      "type": "error"
    },
    {
      "anonymous": false,
      "inputs": [
        {
          "indexed": true,
          "internalType": "address",
          "name": "sender",
          "type": "address"
        },
        {
          "indexed": false,
          "internalType": "uint256",
          "name": "rate",
          "type": "uint256"
        }
      ],
      "name": "AccrualDecreased",
      "type": "event"
    },
    {
      "anonymous": false,
      "inputs": [
        {
          "indexed": true,
          "internalType": "address",
          "name": "sender",
          "type": "address"
        },
        {
          "indexed": false,
          "internalType": "uint256",
          "name": "rate",
          "type": "uint256"
        }
      ],
      "name": "AccrualIncreased",
      "type": "event"
    },
    {
      "anonymous": false,
      "inputs": [
        {
          "indexed": true,
          "internalType": "address",
          "name": "owner",
          "type": "address"
        },
        {
          "indexed": true,
          "internalType": "address",
          "name": "spender",
          "type": "address"
        },
        {
          "indexed": false,
          "internalType": "uint256",
          "name": "value",
          "type": "uint256"
        }
      ],
      "name": "Approval",
      "type": "event"
    },
    {
      "anonymous": false,
      "inputs": [
        {
          "indexed": true,
          "internalType": "address",
          "name": "oldGovernance",
          "type": "address"
        },
        {
          "indexed": true,
          "internalType": "address",
          "name": "newGovernance",
          "type": "address"
        }
      ],
      "name": "GovernanceTransferred",
      "type": "event"
    },
    {
      "anonymous": false,
      "inputs": [
        {
          "indexed": true,
          "internalType": "address",
          "name": "from",
          "type": "address"
        },
        {
          "indexed": true,
          "internalType": "address",
          "name": "to",
          "type": "address"
        },
        {
          "indexed": false,
          "internalType": "uint256",
          "name": "value",
          "type": "uint256"
        }
      ],
      "name": "Transfer",
      "type": "event"
    },
    {
      "inputs": [
        {
          "internalType": "address",
          "name": "",
          "type": "address"
        }
      ],
      "name": "accountInfo",
      "outputs": [
        {
          "internalType": "uint256",
          "name": "accruedSince",
          "type": "uint256"
        },
        {
          "internalType": "uint256",
          "name": "incomingRate",
          "type": "uint256"
        }
      ],
      "stateMutability": "view",
      "type": "function"
    },
    {
      "inputs": [
        {
          "internalType": "address",
          "name": "account",
          "type": "address"
        },
        {
          "internalType": "uint256",
          "name": "rate",
          "type": "uint256"
        }
      ],
      "name": "addAccrual",
      "outputs": [],
      "stateMutability": "nonpayable",
      "type": "function"
    },
    {
      "inputs": [
        {
          "internalType": "address",
          "name": "owner",
          "type": "address"
        },
        {
          "internalType": "address",
          "name": "spender",
          "type": "address"
        }
      ],
      "name": "allowance",
      "outputs": [
        {
          "internalType": "uint256",
          "name": "",
          "type": "uint256"
        }
      ],
      "stateMutability": "view",
      "type": "function"
    },
    {
      "inputs": [
        {
          "internalType": "address",
          "name": "spender",
          "type": "address"
        },
        {
          "internalType": "uint256",
          "name": "amount",
          "type": "uint256"
        }
      ],
      "name": "approve",
      "outputs": [
        {
          "internalType": "bool",
          "name": "",
          "type": "bool"
        }
      ],
      "stateMutability": "nonpayable",
      "type": "function"
    },
    {
      "inputs": [
        {
          "internalType": "address",
          "name": "account",
          "type": "address"
        }
      ],
      "name": "balanceOf",
      "outputs": [
        {
          "internalType": "uint256",
          "name": "",
          "type": "uint256"
        }
      ],
      "stateMutability": "view",
      "type": "function"
    },
    {
      "inputs": [
        {
          "internalType": "uint256",
          "name": "tokenId",
          "type": "uint256"
        },
        {
          "internalType": "uint256",
          "name": "ratePerSecond",
          "type": "uint256"
        }
      ],
      "name": "cancelDelegation",
      "outputs": [],
      "stateMutability": "nonpayable",
      "type": "function"
    },
    {
      "inputs": [],
      "name": "childTunnel",
      "outputs": [
        {
          "internalType": "address",
          "name": "",
          "type": "address"
        }
      ],
      "stateMutability": "view",
      "type": "function"
    },
    {
      "inputs": [],
      "name": "decimals",
      "outputs": [
        {
          "internalType": "uint8",
          "name": "",
          "type": "uint8"
        }
      ],
      "stateMutability": "view",
      "type": "function"
    },
    {
      "inputs": [
        {
          "internalType": "address",
          "name": "spender",
          "type": "address"
        },
        {
          "internalType": "uint256",
          "name": "subtractedValue",
          "type": "uint256"
        }
      ],
      "name": "decreaseAllowance",
      "outputs": [
        {
          "internalType": "bool",
          "name": "",
          "type": "bool"
        }
      ],
      "stateMutability": "nonpayable",
      "type": "function"
    },
    {
      "inputs": [
        {
          "internalType": "address",
          "name": "account",
          "type": "address"
        }
      ],
      "name": "getAccruedBalance",
      "outputs": [
        {
          "internalType": "uint256",
          "name": "",
          "type": "uint256"
        }
      ],
      "stateMutability": "view",
      "type": "function"
    },
    {
      "inputs": [],
      "name": "governance",
      "outputs": [
        {
          "internalType": "address",
          "name": "",
          "type": "address"
        }
      ],
      "stateMutability": "view",
      "type": "function"
    },
    {
      "inputs": [
        {
          "internalType": "address",
          "name": "spender",
          "type": "address"
        },
        {
          "internalType": "uint256",
          "name": "addedValue",
          "type": "uint256"
        }
      ],
      "name": "increaseAllowance",
      "outputs": [
        {
          "internalType": "bool",
          "name": "",
          "type": "bool"
        }
      ],
      "stateMutability": "nonpayable",
      "type": "function"
    },
    {
      "inputs": [
        {
          "internalType": "address",
          "name": "account",
          "type": "address"
        },
        {
          "internalType": "uint256",
          "name": "amount",
          "type": "uint256"
        }
      ],
      "name": "mint",
      "outputs": [],
      "stateMutability": "nonpayable",
      "type": "function"
    },
    {
      "inputs": [],
      "name": "name",
      "outputs": [
        {
          "internalType": "string",
          "name": "",
          "type": "string"
        }
      ],
      "stateMutability": "view",
      "type": "function"
    },
    {
      "inputs": [
        {
          "internalType": "address",
          "name": "pchildTunnel",
          "type": "address"
        }
      ],
      "name": "setchildTunnel",
      "outputs": [],
      "stateMutability": "nonpayable",
      "type": "function"
    },
    {
      "inputs": [
        {
          "internalType": "address",
          "name": "account",
          "type": "address"
        },
        {
          "internalType": "uint256",
          "name": "rate",
          "type": "uint256"
        }
      ],
      "name": "subAccrual",
      "outputs": [],
      "stateMutability": "nonpayable",
      "type": "function"
    },
    {
      "inputs": [],
      "name": "symbol",
      "outputs": [
        {
          "internalType": "string",
          "name": "",
          "type": "string"
        }
      ],
      "stateMutability": "view",
      "type": "function"
    },
    {
      "inputs": [],
      "name": "totalSupply",
      "outputs": [
        {
          "internalType": "uint256",
          "name": "",
          "type": "uint256"
        }
      ],
      "stateMutability": "view",
      "type": "function"
    },
    {
      "inputs": [
        {
          "internalType": "address",
          "name": "to",
          "type": "address"
        },
        {
          "internalType": "uint256",
          "name": "amount",
          "type": "uint256"
        }
      ],
      "name": "transfer",
      "outputs": [
        {
          "internalType": "bool",
          "name": "",
          "type": "bool"
        }
      ],
      "stateMutability": "nonpayable",
      "type": "function"
    },
    {
      "inputs": [
        {
          "internalType": "address",
          "name": "from",
          "type": "address"
        },
        {
          "internalType": "address",
          "name": "to",
          "type": "address"
        },
        {
          "internalType": "uint256",
          "name": "amount",
          "type": "uint256"
        }
      ],
      "name": "transferFrom",
      "outputs": [
        {
          "internalType": "bool",
          "name": "",
          "type": "bool"
        }
      ],
      "stateMutability": "nonpayable",
      "type": "function"
    },
    {
      "inputs": [
        {
          "internalType": "address",
          "name": "_newGovernance",
          "type": "address"
        }
      ],
      "name": "transferGovernance",
      "outputs": [],
      "stateMutability": "nonpayable",
      "type": "function"
    }
  ],
  "bytecode": {
    "object": "0x60806040523480156200001157600080fd5b506040516200111f3803806200111f8339810160408190526200003491620000d0565b6040518060400160405280601681526020017f556e6976657273616c20426173696320496e636f6d65000000000000000000008152506040518060400160405280600381526020016255424960e81b8152508160039081620000979190620001a7565b506004620000a68282620001a7565b5050600780546001600160a01b0319166001600160a01b0393909316929092179091555062000273565b600060208284031215620000e357600080fd5b81516001600160a01b0381168114620000fb57600080fd5b9392505050565b634e487b7160e01b600052604160045260246000fd5b600181811c908216806200012d57607f821691505b6020821081036200014e57634e487b7160e01b600052602260045260246000fd5b50919050565b601f821115620001a257600081815260208120601f850160051c810160208610156200017d5750805b601f850160051c820191505b818110156200019e5782815560010162000189565b5050505b505050565b81516001600160401b03811115620001c357620001c362000102565b620001db81620001d4845462000118565b8462000154565b602080601f831160018114620002135760008415620001fa5750858301515b600019600386901b1c1916600185901b1785556200019e565b600085815260208120601f198616915b82811015620002445788860151825594840194600190910190840162000223565b5085821015620002635787850151600019600388901b60f8161c191681555b5050505050600190811b01905550565b610e9c80620002836000396000f3fe608060405234801561001057600080fd5b50600436106101375760003560e01c80636d6aa34d116100b8578063a457c2d71161007c578063a457c2d71461027e578063a7310b5814610291578063a9059cbb146102cd578063d38bfff4146102e0578063dd62ed3e146102f3578063fb154a4c1461030657600080fd5b80636d6aa34d1461022a57806370a082311461023d57806375843f881461025057806395d89b411461026357806397f6a8591461026b57600080fd5b806339509351116100ff57806339509351146101b157806340c10f19146101c4578063481efd30146101d957806356f64daa146101ec5780635aa6e675146101ff57600080fd5b806306fdde031461013c578063095ea7b31461015a57806318160ddd1461017d57806323b872dd1461018f578063313ce567146101a2575b600080fd5b610144610319565b6040516101519190610c92565b60405180910390f35b61016d610168366004610cfc565b6103ab565b6040519015158152602001610151565b6002545b604051908152602001610151565b61016d61019d366004610d26565b6103c5565b60405160128152602001610151565b61016d6101bf366004610cfc565b6103e9565b6101d76101d2366004610cfc565b61040b565b005b6101d76101e7366004610cfc565b610470565b6101d76101fa366004610d62565b610517565b600554610212906001600160a01b031681565b6040516001600160a01b039091168152602001610151565b600754610212906001600160a01b031681565b61018161024b366004610d62565b610562565b6101d761025e366004610cfc565b610590565b61014461062f565b610181610279366004610d62565b61063e565b61016d61028c366004610cfc565b610698565b6102b861029f366004610d62565b6006602052600090815260409020805460019091015482565b60408051928352602083019190915201610151565b61016d6102db366004610cfc565b610718565b6101d76102ee366004610d62565b610726565b610181610301366004610d84565b610784565b6101d7610314366004610db7565b6107af565b60606003805461032890610dd9565b80601f016020809104026020016040519081016040528092919081815260200182805461035490610dd9565b80156103a15780601f10610376576101008083540402835291602001916103a1565b820191906000526020600020905b81548152906001019060200180831161038457829003601f168201915b5050505050905090565b6000336103b981858561081e565b60019150505b92915050565b6000336103d3858285610942565b6103de8585856109bc565b506001949350505050565b6000336103b98185856103fc8383610784565b6104069190610e29565b61081e565b6007546001600160a01b0316331461043657604051631a9c2ff160e31b815260040160405180910390fd5b61045382826104448561063e565b61044e9190610e29565b610b8a565b506001600160a01b03166000908152600660205260409020429055565b6007546001600160a01b0316331461049b57604051631a9c2ff160e31b815260040160405180910390fd5b6104a482610c69565b6001600160a01b038216600090815260066020526040812060010180548392906104cf908490610e29565b90915550506040518181526001600160a01b038316907f57a25f35c6a0cf536568130fbc377fcaeabedd475a987623926e8eb6c835b232906020015b60405180910390a25050565b6005546001600160a01b0316330361054957600780546001600160a01b0383166001600160a01b031990911617905550565b6040516354348f0360e01b815260040160405180910390fd5b600061056d8261063e565b6001600160a01b0383166000908152602081905260409020546103bf9190610e29565b6007546001600160a01b031633146105bb57604051631a9c2ff160e31b815260040160405180910390fd5b6105c482610c69565b6001600160a01b038216600090815260066020526040812060010180548392906105ef908490610e3c565b90915550506040518181526001600160a01b038316907f6fc52d95ed08ef2516681957e48b44f859c4c43c6bc98d61b1f36978cc395f4b9060200161050b565b60606004805461032890610dd9565b6001600160a01b038116600090815260066020526040812054810361066557506000919050565b6001600160a01b03821660009081526006602052604090206001810154905461068e9042610e3c565b6103bf9190610e4f565b600033816106a68286610784565b90508381101561070b5760405162461bcd60e51b815260206004820152602560248201527f45524332303a2064656372656173656420616c6c6f77616e63652062656c6f77604482015264207a65726f60d81b60648201526084015b60405180910390fd5b6103de828686840361081e565b6000336103b98185856109bc565b6005546001600160a01b0316330361054957600580546001600160a01b0319166001600160a01b03831690811790915560405181907f5f56bee8cffbe9a78652a74a60705edede02af10b0bbb888ca44b79a0d42ce8090600090a350565b6001600160a01b03918216600090815260016020908152604080832093909416825291909152205490565b600754604051630a9e208760e11b815233600482015260248101849052604481018390526001600160a01b039091169063153c410e90606401600060405180830381600087803b15801561080257600080fd5b505af1158015610816573d6000803e3d6000fd5b505050505050565b6001600160a01b0383166108805760405162461bcd60e51b8152602060048201526024808201527f45524332303a20617070726f76652066726f6d20746865207a65726f206164646044820152637265737360e01b6064820152608401610702565b6001600160a01b0382166108e15760405162461bcd60e51b815260206004820152602260248201527f45524332303a20617070726f766520746f20746865207a65726f206164647265604482015261737360f01b6064820152608401610702565b6001600160a01b0383811660008181526001602090815260408083209487168084529482529182902085905590518481527f8c5be1e5ebec7d5bd14f71427d1e84f3dd0314c0f7b2291e5b200ac8c7c3b925910160405180910390a3505050565b600061094e8484610784565b905060001981146109b657818110156109a95760405162461bcd60e51b815260206004820152601d60248201527f45524332303a20696e73756666696369656e7420616c6c6f77616e63650000006044820152606401610702565b6109b6848484840361081e565b50505050565b6001600160a01b038316610a205760405162461bcd60e51b815260206004820152602560248201527f45524332303a207472616e736665722066726f6d20746865207a65726f206164604482015264647265737360d81b6064820152608401610702565b6001600160a01b038216610a825760405162461bcd60e51b815260206004820152602360248201527f45524332303a207472616e7366657220746f20746865207a65726f206164647260448201526265737360e81b6064820152608401610702565b6001600160a01b03831660009081526020819052604090205481811015610afa5760405162461bcd60e51b815260206004820152602660248201527f45524332303a207472616e7366657220616d6f756e7420657863656564732062604482015265616c616e636560d01b6064820152608401610702565b6001600160a01b03808516600090815260208190526040808220858503905591851681529081208054849290610b31908490610e29565b92505081905550826001600160a01b0316846001600160a01b03167fddf252ad1be2c89b69c2b068fc378daa952ba7f163c4a11628f55a4df523b3ef84604051610b7d91815260200190565b60405180910390a36109b6565b6001600160a01b038216610be05760405162461bcd60e51b815260206004820152601f60248201527f45524332303a206d696e7420746f20746865207a65726f2061646472657373006044820152606401610702565b8060026000828254610bf29190610e29565b90915550506001600160a01b03821660009081526020819052604081208054839290610c1f908490610e29565b90915550506040518181526001600160a01b038316906000907fddf252ad1be2c89b69c2b068fc378daa952ba7f163c4a11628f55a4df523b3ef9060200160405180910390a35050565b610c768161044e8361063e565b6001600160a01b03166000908152600660205260409020429055565b600060208083528351808285015260005b81811015610cbf57858101830151858201604001528201610ca3565b506000604082860101526040601f19601f8301168501019250505092915050565b80356001600160a01b0381168114610cf757600080fd5b919050565b60008060408385031215610d0f57600080fd5b610d1883610ce0565b946020939093013593505050565b600080600060608486031215610d3b57600080fd5b610d4484610ce0565b9250610d5260208501610ce0565b9150604084013590509250925092565b600060208284031215610d7457600080fd5b610d7d82610ce0565b9392505050565b60008060408385031215610d9757600080fd5b610da083610ce0565b9150610dae60208401610ce0565b90509250929050565b60008060408385031215610dca57600080fd5b50508035926020909101359150565b600181811c90821680610ded57607f821691505b602082108103610e0d57634e487b7160e01b600052602260045260246000fd5b50919050565b634e487b7160e01b600052601160045260246000fd5b808201808211156103bf576103bf610e13565b818103818111156103bf576103bf610e13565b80820281158282048414176103bf576103bf610e1356fea26469706673582212203e7c9576df35eb01bd0c96f1930609c010669f6217429bae08ab23c9f103260d64736f6c63430008110033",
    "linkReferences": {}
  },
  "methodIdentifiers": {
    "accountInfo(address)": "a7310b58",
    "addAccrual(address,uint256)": "481efd30",
    "allowance(address,address)": "dd62ed3e",
    "approve(address,uint256)": "095ea7b3",
    "balanceOf(address)": "70a08231",
    "cancelDelegation(uint256,uint256)": "fb154a4c",
    "childTunnel()": "6d6aa34d",
    "decimals()": "313ce567",
    "decreaseAllowance(address,uint256)": "a457c2d7",
    "getAccruedBalance(address)": "97f6a859",
    "governance()": "5aa6e675",
    "increaseAllowance(address,uint256)": "39509351",
    "mint(address,uint256)": "40c10f19",
    "name()": "06fdde03",
    "setchildTunnel(address)": "56f64daa",
    "subAccrual(address,uint256)": "75843f88",
    "symbol()": "95d89b41",
    "totalSupply()": "18160ddd",
    "transfer(address,uint256)": "a9059cbb",
    "transferFrom(address,address,uint256)": "23b872dd",
    "transferGovernance(address)": "d38bfff4"
  },
  "id": 1
}