{
  "abi": [
    {
      "inputs": [
        {
          "internalType": "address",
          "name": "_UBI",
          "type": "address"
        },
        {
          "internalType": "address",
          "name": "_fUBI",
          "type": "address"
        },
        {
          "internalType": "address",
          "name": "_checkpointManager",
          "type": "address"
        },
        {
          "internalType": "address",
          "name": "_fxRoot",
          "type": "address"
        }
      ],
      "stateMutability": "nonpayable",
      "type": "constructor"
    },
    {
      "anonymous": false,
      "inputs": [
        {
          "indexed": true,
          "internalType": "address",
          "name": "sourceHuman",
          "type": "address"
        },
        {
          "indexed": true,
          "internalType": "address",
          "name": "depositer",
          "type": "address"
        },
        {
          "indexed": false,
          "internalType": "uint256",
          "name": "id",
          "type": "uint256"
        }
      ],
      "name": "FUBIDeposited",
      "type": "event"
    },
    {
      "anonymous": false,
      "inputs": [
        {
          "indexed": true,
          "internalType": "address",
          "name": "previousOwner",
          "type": "address"
        },
        {
          "indexed": true,
          "internalType": "address",
          "name": "newOwner",
          "type": "address"
        }
      ],
      "name": "OwnershipTransferred",
      "type": "event"
    },
    {
      "inputs": [],
      "name": "FUBI_CANCELLED_ON_L2",
      "outputs": [
        {
          "internalType": "bytes32",
          "name": "",
          "type": "bytes32"
        }
      ],
      "stateMutability": "view",
      "type": "function"
    },
    {
      "inputs": [],
      "name": "FUBI_DEPOSIT",
      "outputs": [
        {
          "internalType": "bytes32",
          "name": "",
          "type": "bytes32"
        }
      ],
      "stateMutability": "view",
      "type": "function"
    },
    {
      "inputs": [],
      "name": "SEND_MESSAGE_EVENT_SIG",
      "outputs": [
        {
          "internalType": "bytes32",
          "name": "",
          "type": "bytes32"
        }
      ],
      "stateMutability": "view",
      "type": "function"
    },
    {
      "inputs": [
        {
          "internalType": "uint256",
          "name": "chainId",
          "type": "uint256"
        },
        {
          "internalType": "uint256",
          "name": "amount",
          "type": "uint256"
        },
        {
          "internalType": "bytes",
          "name": "data",
          "type": "bytes"
        }
      ],
      "name": "bridgeAmount",
      "outputs": [],
      "stateMutability": "nonpayable",
      "type": "function"
    },
    {
      "inputs": [
        {
          "internalType": "uint256",
          "name": "chainId",
          "type": "uint256"
        },
        {
          "internalType": "uint256",
          "name": "tokenId",
          "type": "uint256"
        },
        {
          "internalType": "bytes",
          "name": "data",
          "type": "bytes"
        }
      ],
      "name": "bridgeFlow",
      "outputs": [],
      "stateMutability": "nonpayable",
      "type": "function"
    },
    {
      "inputs": [],
      "name": "checkpointManager",
      "outputs": [
        {
          "internalType": "contract ICheckpointManager",
          "name": "",
          "type": "address"
        }
      ],
      "stateMutability": "view",
      "type": "function"
    },
    {
      "inputs": [],
      "name": "fxChildTunnel",
      "outputs": [
        {
          "internalType": "address",
          "name": "",
          "type": "address"
        }
      ],
      "stateMutability": "view",
      "type": "function"
    },
    {
      "inputs": [],
      "name": "fxRoot",
      "outputs": [
        {
          "internalType": "contract IFxStateSender",
          "name": "",
          "type": "address"
        }
      ],
      "stateMutability": "view",
      "type": "function"
    },
    {
      "inputs": [],
      "name": "latestData",
      "outputs": [
        {
          "internalType": "bytes",
          "name": "",
          "type": "bytes"
        }
      ],
      "stateMutability": "view",
      "type": "function"
    },
    {
      "inputs": [
        {
          "internalType": "uint256",
          "name": "tokenId",
          "type": "uint256"
        }
      ],
      "name": "onDelegationCanceled",
      "outputs": [],
      "stateMutability": "nonpayable",
      "type": "function"
    },
    {
      "inputs": [],
      "name": "owner",
      "outputs": [
        {
          "internalType": "address",
          "name": "",
          "type": "address"
        }
      ],
      "stateMutability": "view",
      "type": "function"
    },
    {
      "inputs": [
        {
          "internalType": "bytes32",
          "name": "",
          "type": "bytes32"
        }
      ],
      "name": "processedExits",
      "outputs": [
        {
          "internalType": "bool",
          "name": "",
          "type": "bool"
        }
      ],
      "stateMutability": "view",
      "type": "function"
    },
    {
      "inputs": [
        {
          "internalType": "bytes",
          "name": "inputData",
          "type": "bytes"
        }
      ],
      "name": "receiveMessage",
      "outputs": [],
      "stateMutability": "nonpayable",
      "type": "function"
    },
    {
      "inputs": [],
      "name": "renounceOwnership",
      "outputs": [],
      "stateMutability": "nonpayable",
      "type": "function"
    },
    {
      "inputs": [
        {
          "internalType": "address",
          "name": "_fUBI",
          "type": "address"
        }
      ],
      "name": "setFUBI",
      "outputs": [],
      "stateMutability": "nonpayable",
      "type": "function"
    },
    {
      "inputs": [
        {
          "internalType": "address",
          "name": "_fxChildTunnel",
          "type": "address"
        }
      ],
      "name": "setFxChildTunnel",
      "outputs": [],
      "stateMutability": "nonpayable",
      "type": "function"
    },
    {
      "inputs": [
        {
          "internalType": "address",
          "name": "_UBI",
          "type": "address"
        }
      ],
      "name": "setUBI",
      "outputs": [],
      "stateMutability": "nonpayable",
      "type": "function"
    },
    {
      "inputs": [
        {
          "internalType": "address",
          "name": "newOwner",
          "type": "address"
        }
      ],
      "name": "transferOwnership",
      "outputs": [],
      "stateMutability": "nonpayable",
      "type": "function"
    }
  ],
  "bytecode": {
    "object": "0x60806040523480156200001157600080fd5b50604051620027c0380380620027c0833981016040819052620000349162000119565b600180546001600160a01b038085166001600160a01b031992831617909255600080549284169290911691909117905562000076620000703390565b620000aa565b5050600580546001600160a01b039384166001600160a01b0319918216179091556006805492909316911617905562000176565b600480546001600160a01b038381166001600160a01b0319831681179093556040519116919082907f8be0079c531659141344cd1fd0a4f28419497f9722a3daafe3b4186f6b6457e090600090a35050565b80516001600160a01b03811681146200011457600080fd5b919050565b600080600080608085870312156200013057600080fd5b6200013b85620000fc565b93506200014b60208601620000fc565b92506200015b60408601620000fc565b91506200016b60608601620000fc565b905092959194509250565b61263a80620001866000396000f3fe608060405234801561001057600080fd5b50600436106101165760003560e01c8063a5a9af16116100a2578063d80dc6d011610071578063d80dc6d01461028c578063de9b771f1461029f578063e18709f0146102b2578063f2fde38b146102c5578063f953cec7146102d857600080fd5b8063a5a9af161461022c578063aea4e49e14610253578063c0857ba014610266578063cf2febd01461027957600080fd5b80634c135a51116100e95780634c135a51146101a6578063607f2d42146101b9578063715018a6146101ec5780638da5cb5b146101f4578063972c49281461021957600080fd5b80630e387de61461011b578063142bc2ae1461015557806336c272731461016a57806346923a5c1461017f575b600080fd5b6101427f8c5261668696ce22758910d05bab8f186d6eb247ceac2af2e82c7dc17669b03681565b6040519081526020015b60405180910390f35b61015d6102eb565b60405161014c9190611f9a565b61017d610178366004611fc2565b610379565b005b6101427fb27272e9c834dea2de161f35ddb8437388633171dfffdc9c7905365bd05434fd81565b61017d6101b4366004611fdf565b6103ce565b6101dc6101c7366004611fdf565b60036020526000908152604090205460ff1681565b604051901515815260200161014c565b61017d6103fb565b6004546001600160a01b03165b6040516001600160a01b03909116815260200161014c565b600254610201906001600160a01b031681565b6101427f495fc8a59f98537708f00012baab2617754c889cc3a3d654ccc32a6d596f4a1981565b61017d610261366004611fc2565b610431565b600154610201906001600160a01b031681565b61017d610287366004611ff8565b6104bf565b61017d61029a366004611ff8565b6104ef565b600054610201906001600160a01b031681565b61017d6102c0366004611fc2565b610760565b61017d6102d3366004611fc2565b6107ac565b61017d6102e63660046120e4565b610844565b600880546102f890612163565b80601f016020809104026020016040519081016040528092919081815260200182805461032490612163565b80156103715780601f1061034657610100808354040283529160200191610371565b820191906000526020600020905b81548152906001019060200180831161035457829003601f168201915b505050505081565b6004546001600160a01b031633146103ac5760405162461bcd60e51b81526004016103a390612197565b60405180910390fd5b600680546001600160a01b0319166001600160a01b0392909216919091179055565b6007546001600160a01b031633146103f85760405162461bcd60e51b81526004016103a3906121cc565b50565b6004546001600160a01b031633146104255760405162461bcd60e51b81526004016103a390612197565b61042f600061085e565b565b6002546001600160a01b03161561049d5760405162461bcd60e51b815260206004820152602a60248201527f467842617365526f6f7454756e6e656c3a204348494c445f54554e4e454c5f4160448201526913149150511657d4d15560b21b60648201526084016103a3565b600280546001600160a01b0319166001600160a01b0392909216919091179055565b6007546001600160a01b031633146104e95760405162461bcd60e51b81526004016103a3906121cc565b50505050565b6007546001600160a01b031633146105195760405162461bcd60e51b81526004016103a3906121cc565b6007546001600160a01b031633146105675760405162461bcd60e51b815260206004820152601160248201527027b7363ca13934b233b2a6b0b730b3b2b960791b60448201526064016103a3565b600654604051632c1881ff60e21b8152600481018590526000918291829182916001600160a01b039091169063b06207fc90602401608060405180830381865afa1580156105b9573d6000803e3d6000fd5b505050506040513d601f19601f820116820180604052508101906105dd919061220d565b9350935093509350806106215760405162461bcd60e51b815260206004820152600c60248201526b496e616374697665466c6f7760a01b60448201526064016103a3565b60008781526009602052604090205460ff16156106775760405162461bcd60e51b8152602060048201526014602482015273199b1bddc8185b1c9958591e48189c9a5919d95960621b60448201526064016103a3565b6000878152600960209081526040808320805460ff1916600117905580516001600160a01b038616928101929092528101869052426060820152608081018990527f495fc8a59f98537708f00012baab2617754c889cc3a3d654ccc32a6d596f4a199060a00160408051601f19818403018152908290526106fb929160200161225d565b6040516020818303038152906040529050610715816108b0565b60405188815233906001600160a01b038516907fe8c45f653ac2443c7ef8198468ffc2630974bfbf375f93510c15688eba5813309060200160405180910390a3505050505050505050565b6004546001600160a01b0316331461078a5760405162461bcd60e51b81526004016103a390612197565b600580546001600160a01b0319166001600160a01b0392909216919091179055565b6004546001600160a01b031633146107d65760405162461bcd60e51b81526004016103a390612197565b6001600160a01b03811661083b5760405162461bcd60e51b815260206004820152602660248201527f4f776e61626c653a206e6577206f776e657220697320746865207a65726f206160448201526564647265737360d01b60648201526084016103a3565b6103f88161085e565b600061084f8261091b565b905061085a81610c01565b5050565b600480546001600160a01b038381166001600160a01b0319831681179093556040519116919082907f8be0079c531659141344cd1fd0a4f28419497f9722a3daafe3b4186f6b6457e090600090a35050565b60005460025460405163b472047760e01b81526001600160a01b039283169263b4720477926108e6929116908590600401612276565b600060405180830381600087803b15801561090057600080fd5b505af1158015610914573d6000803e3d6000fd5b5050505050565b6060600061092883610d0a565b9050600061093582610d69565b9050600061094283610d98565b905060008161095084610dc1565b61095986610f7d565b60405160200161096b9392919061229a565b60408051601f1981840301815291815281516020928301206000818152600390935291205490915060ff16156109ef5760405162461bcd60e51b8152602060048201526024808201527f4678526f6f7454756e6e656c3a20455849545f414c52454144595f50524f434560448201526314d4d15160e21b60648201526084016103a3565b6000818152600360205260408120805460ff19166001179055610a1185610f99565b90506000610a1e826110e2565b9050610a2981611172565b6002546001600160a01b03908116911614610a945760405162461bcd60e51b815260206004820152602560248201527f4678526f6f7454756e6e656c3a20494e56414c49445f46585f4348494c445f54604482015264155393915360da1b60648201526084016103a3565b6000610a9f8761119b565b9050610abf610aaf846020015190565b87610ab98a6111b7565b846111d3565b610b175760405162461bcd60e51b815260206004820152602360248201527f4678526f6f7454756e6e656c3a20494e56414c49445f524543454950545f505260448201526227a7a360e91b60648201526084016103a3565b610b4585610b2489611486565b610b2d8a6114a2565b84610b378c6114be565b610b408d6114da565b6114f6565b506000610b518361161c565b90507f8c5261668696ce22758910d05bab8f186d6eb247ceac2af2e82c7dc17669b036610b87610b82836000611658565b611690565b14610bd45760405162461bcd60e51b815260206004820152601f60248201527f4678526f6f7454756e6e656c3a20494e56414c49445f5349474e41545552450060448201526064016103a3565b6000610bdf8461170b565b806020019051810190610bf2919061230c565b9b9a5050505050505050505050565b60008082806020019051810190610c189190612340565b915091507fb27272e9c834dea2de161f35ddb8437388633171dfffdc9c7905365bd05434fd8203610cb35760008082806020019051810190610c5a9190612386565b60405162461bcd60e51b815260206004820152602360248201527f544f444f3a20494d504c454d454e542043414e43454c4154494f4e2046524f4d60448201526210261960e91b606482015291935091506084016103a3565b60405162461bcd60e51b815260206004820152602660248201527f46784552433732314368696c6454756e6e656c3a20494e56414c49445f53594e604482015265435f5459504560d01b60648201526084016103a3565b6040805160208101909152606081526000610d54610d4f8460408051808201825260008082526020918201528151808301909252825182529182019181019190915290565b611727565b60408051602081019091529081529392505050565b6060610d928260000151600881518110610d8557610d856123aa565b602002602001015161183c565b92915050565b6000610d928260000151600281518110610db457610db46123aa565b6020026020010151611690565b60408051602081019091526000815281516060919015610d9257600080610de96000866118d8565b60f81c90506001811480610e0057508060ff166003145b15610ea757600185516002610e1591906123d6565b610e1f91906123ed565b6001600160401b03811115610e3657610e36612077565b6040519080825280601f01601f191660200182016040528015610e60576020820181803683370190505b5092506000610e706001876118d8565b90508084600081518110610e8657610e866123aa565b60200101906001600160f81b031916908160001a9053506001925050610f0a565b600285516002610eb791906123d6565b610ec191906123ed565b6001600160401b03811115610ed857610ed8612077565b6040519080825280601f01601f191660200182016040528015610f02576020820181803683370190505b509250600091505b60ff82165b8351811015610f7457610f39610f2860ff8516836123ed565b610f33906002612400565b876118d8565b848281518110610f4b57610f4b6123aa565b60200101906001600160f81b031916908160001a90535080610f6c81612413565b915050610f0f565b50505092915050565b6000610d928260000151600981518110610db457610db46123aa565b610fbd60405180606001604052806060815260200160608152602001600081525090565b610fd78260000151600681518110610d8557610d856123aa565b60208281018290526040805180820182526000808252908301528051808201909152825181529181019082015261100d81611959565b156110225761101b81611727565b82526110ce565b60208201518051600090611038906001906123ed565b6001600160401b0381111561104f5761104f612077565b6040519080825280601f01601f191660200182016040528015611079576020820181803683370190505b50905060008083602101915082602001905061109782828551611994565b6040805180820182526000808252602091820152815180830190925284518252808501908201526110c790611727565b8652505050505b6110d783610f7d565b604083015250919050565b6040805160808101825260009181018281526060808301939093528152602081019190915260006111308360000151600381518110611123576111236123aa565b6020026020010151611727565b836040015181518110611145576111456123aa565b60200260200101519050604051806040016040528082815260200161116983611727565b90529392505050565b6000610d92826020015160008151811061118e5761118e6123aa565b6020026020010151611a12565b6000610d928260000151600581518110610db457610db46123aa565b6060610d928260000151600781518110610d8557610d856123aa565b6000806112078460408051808201825260008082526020918201528151808301909252825182529182019181019190915290565b9050600061121482611727565b9050606080856000806112268b610dc1565b9050805160000361124157600097505050505050505061147e565b60005b86518110156114755781518311156112675760009850505050505050505061147e565b61128987828151811061127c5761127c6123aa565b6020026020010151611a2c565b9550858051906020012084146112aa5760009850505050505050505061147e565b6112bf878281518110611123576111236123aa565b94508451601103611391578151830361131e578c805190602001206112f086601081518110610d8557610d856123aa565b805190602001200361130d5760019850505050505050505061147e565b60009850505050505050505061147e565b6000828481518110611332576113326123aa565b016020015160f81c90506010811115611357576000995050505050505050505061147e565b61137c868260ff168151811061136f5761136f6123aa565b6020026020010151611aaa565b9450611389600185612400565b935050611463565b845160020361130d5760006113bc6113b587600081518110610d8557610d856123aa565b8486611ad8565b83519091506113cb8286612400565b0361141e578d805190602001206113ee87600181518110610d8557610d856123aa565b805190602001200361140c576001995050505050505050505061147e565b6000995050505050505050505061147e565b80600003611438576000995050505050505050505061147e565b6114428185612400565b935061145a8660018151811061136f5761136f6123aa565b94506114639050565b8061146d81612413565b915050611244565b50505050505050505b949350505050565b6000610d928260000151600381518110610db457610db46123aa565b6000610d928260000151600481518110610db457610db46123aa565b6000610d928260000151600081518110610db457610db46123aa565b6060610d928260000151600181518110610d8557610d856123aa565b6001546040516320a9cea560e11b8152600481018490526000918291829182916001600160a01b03909116906341539d4a9060240160a060405180830381865afa158015611548573d6000803e3d6000fd5b505050506040513d601f19601f8201168201806040525081019061156c919061242c565b50935050925092506115c3828b61158391906123ed565b6040805160208082018f90528183018e9052606082018d905260808083018d90528351808403909101815260a09092019092528051910120908588611bdf565b61160f5760405162461bcd60e51b815260206004820152601c60248201527f4678526f6f7454756e6e656c3a20494e56414c49445f4845414445520000000060448201526064016103a3565b9998505050505050505050565b60408051602081019091526060815260405180602001604052806116508460200151600181518110611123576111236123aa565b905292915050565b60408051808201909152600080825260208201528251805183908110611680576116806123aa565b6020026020010151905092915050565b8051600090158015906116a557508151602110155b6116ae57600080fd5b60006116bd8360200151611d47565b905060008184600001516116d191906123ed565b90506000808386602001516116e69190612400565b905080519150602083101561170257826020036101000a820491505b50949350505050565b6060610d928260200151600281518110610d8557610d856123aa565b606061173282611959565b61173b57600080fd5b600061174683611dcf565b90506000816001600160401b0381111561176257611762612077565b6040519080825280602002602001820160405280156117a757816020015b60408051808201909152600080825260208201528152602001906001900390816117805790505b50905060006117b98560200151611d47565b85602001516117c89190612400565b90506000805b84811015611831576117df83611e54565b9150604051806040016040528083815260200184815250848281518110611808576118086123aa565b602090810291909101015261181d8284612400565b92508061182981612413565b9150506117ce565b509195945050505050565b805160609061184a57600080fd5b60006118598360200151611d47565b9050600081846000015161186d91906123ed565b90506000816001600160401b0381111561188957611889612077565b6040519080825280601f01601f1916602001820160405280156118b3576020820181803683370190505b50905060008160200190506117028487602001516118d19190612400565b8285611ef8565b60006118e560028461248f565b1561191f576010826118f86002866124a3565b81518110611908576119086123aa565b016020015161191a919060f81c6124b7565b61194f565b60108261192d6002866124a3565b8151811061193d5761193d6123aa565b016020015161194f919060f81c6124d9565b60f81b9392505050565b8051600090810361196c57506000919050565b6020820151805160001a9060c082101561198a575060009392505050565b5060019392505050565b806000036119a157505050565b602081106119d957825182526119b8602084612400565b92506119c5602083612400565b91506119d26020826123ed565b90506119a1565b600060016119e88360206123ed565b6119f4906101006125df565b6119fe91906123ed565b935183518516941916939093179091525050565b8051600090601514611a2357600080fd5b610d9282611690565b6060600082600001516001600160401b03811115611a4c57611a4c612077565b6040519080825280601f01601f191660200182016040528015611a76576020820181803683370190505b5090508051600003611a885792915050565b6000816020019050611aa38460200151828660000151611ef8565b5092915050565b8051600090602114611abb57600080fd5b60008083602001516001611acf9190612400565b51949350505050565b60008080611ae586610dc1565b9050600081516001600160401b03811115611b0257611b02612077565b6040519080825280601f01601f191660200182016040528015611b2c576020820181803683370190505b509050845b8251611b3d9087612400565b811015611bb0576000878281518110611b5857611b586123aa565b01602001516001600160f81b03191690508083611b7589856123ed565b81518110611b8557611b856123aa565b60200101906001600160f81b031916908160001a905350508080611ba890612413565b915050611b31565b508080519060200120828051906020012003611bcf5781519250611bd4565b600092505b509095945050505050565b600060208251611bef919061248f565b15611c335760405162461bcd60e51b8152602060048201526014602482015273092dcecc2d8d2c840e0e4dedecc40d8cadccee8d60631b60448201526064016103a3565b600060208351611c4391906124a3565b9050611c508160026125df565b8510611c965760405162461bcd60e51b81526020600482015260156024820152744c65616620696e64657820697320746f6f2062696760581b60448201526064016103a3565b60008660205b85518111611d3957858101519250611cb560028961248f565b600003611ced576040805160208101849052908101849052606001604051602081830303815290604052805190602001209150611d1a565b60408051602081018590529081018390526060016040516020818303038152906040528051906020012091505b611d256002896124a3565b9750611d32602082612400565b9050611c9c565b509094149695505050505050565b8051600090811a6080811015611d605750600092915050565b60b8811080611d7b575060c08110801590611d7b575060f881105b15611d895750600192915050565b60c0811015611dbd57611d9e600160b86125eb565b611dab9060ff16826123ed565b611db6906001612400565b9392505050565b611d9e600160f86125eb565b50919050565b80516000908103611de257506000919050565b600080611df28460200151611d47565b8460200151611e019190612400565b9050600084600001518560200151611e199190612400565b90505b80821015611e4b57611e2d82611e54565b611e379083612400565b915082611e4381612413565b935050611e1c565b50909392505050565b80516000908190811a6080811015611e6f5760019150611aa3565b60b8811015611e9557611e836080826123ed565b611e8e906001612400565b9150611aa3565b60c0811015611ec25760b78103600185019450806020036101000a85510460018201810193505050611aa3565b60f8811015611ed657611e8360c0826123ed565b60019390930151602084900360f7016101000a900490920160f5190192915050565b80600003611f0557505050565b60208110611f3d5782518252611f1c602084612400565b9250611f29602083612400565b9150611f366020826123ed565b9050611f05565b806000036119d957505050565b60005b83811015611f65578181015183820152602001611f4d565b50506000910152565b60008151808452611f86816020860160208601611f4a565b601f01601f19169290920160200192915050565b602081526000611db66020830184611f6e565b6001600160a01b03811681146103f857600080fd5b600060208284031215611fd457600080fd5b8135611db681611fad565b600060208284031215611ff157600080fd5b5035919050565b6000806000806060858703121561200e57600080fd5b843593506020850135925060408501356001600160401b038082111561203357600080fd5b818701915087601f83011261204757600080fd5b81358181111561205657600080fd5b88602082850101111561206857600080fd5b95989497505060200194505050565b634e487b7160e01b600052604160045260246000fd5b604051601f8201601f191681016001600160401b03811182821017156120b5576120b5612077565b604052919050565b60006001600160401b038211156120d6576120d6612077565b50601f01601f191660200190565b6000602082840312156120f657600080fd5b81356001600160401b0381111561210c57600080fd5b8201601f8101841361211d57600080fd5b803561213061212b826120bd565b61208d565b81815285602083850101111561214557600080fd5b81602084016020830137600091810160200191909152949350505050565b600181811c9082168061217757607f821691505b602082108103611dc957634e487b7160e01b600052602260045260246000fd5b6020808252818101527f4f776e61626c653a2063616c6c6572206973206e6f7420746865206f776e6572604082015260600190565b60208082526021908201527f4f6e6c7920427269646765204d616e616765722063616e2063616c6c207468696040820152607360f81b606082015260800190565b6000806000806080858703121561222357600080fd5b8451935060208501519250604085015161223c81611fad565b6060860151909250801515811461225257600080fd5b939692955090935050565b82815260406020820152600061147e6040830184611f6e565b6001600160a01b038316815260406020820181905260009061147e90830184611f6e565b838152600083516122b2816020850160208801611f4a565b60209201918201929092526040019392505050565b600082601f8301126122d857600080fd5b81516122e661212b826120bd565b8181528460208386010111156122fb57600080fd5b61147e826020830160208701611f4a565b60006020828403121561231e57600080fd5b81516001600160401b0381111561233457600080fd5b61147e848285016122c7565b6000806040838503121561235357600080fd5b8251915060208301516001600160401b0381111561237057600080fd5b61237c858286016122c7565b9150509250929050565b6000806040838503121561239957600080fd5b505080516020909101519092909150565b634e487b7160e01b600052603260045260246000fd5b634e487b7160e01b600052601160045260246000fd5b8082028115828204841417610d9257610d926123c0565b81810381811115610d9257610d926123c0565b80820180821115610d9257610d926123c0565b600060018201612425576124256123c0565b5060010190565b600080600080600060a0868803121561244457600080fd5b85519450602086015193506040860151925060608601519150608086015161246b81611fad565b809150509295509295909350565b634e487b7160e01b600052601260045260246000fd5b60008261249e5761249e612479565b500690565b6000826124b2576124b2612479565b500490565b600060ff8316806124ca576124ca612479565b8060ff84160691505092915050565b600060ff8316806124ec576124ec612479565b8060ff84160491505092915050565b600181815b8085111561253657816000190482111561251c5761251c6123c0565b8085161561252957918102915b93841c9390800290612500565b509250929050565b60008261254d57506001610d92565b8161255a57506000610d92565b8160018114612570576002811461257a57612596565b6001915050610d92565b60ff84111561258b5761258b6123c0565b50506001821b610d92565b5060208310610133831016604e8410600b84101617156125b9575081810a610d92565b6125c383836124fb565b80600019048211156125d7576125d76123c0565b029392505050565b6000611db6838361253e565b60ff8281168282160390811115610d9257610d926123c056fea2646970667358221220cd695dbb7759414a8e173310a8c8feb7c3810487ea3472f0260db5cc659c321564736f6c63430008110033",
    "linkReferences": {}
  },
  "methodIdentifiers": {
    "FUBI_CANCELLED_ON_L2()": "46923a5c",
    "FUBI_DEPOSIT()": "a5a9af16",
    "SEND_MESSAGE_EVENT_SIG()": "0e387de6",
    "bridgeAmount(uint256,uint256,bytes)": "cf2febd0",
    "bridgeFlow(uint256,uint256,bytes)": "d80dc6d0",
    "checkpointManager()": "c0857ba0",
    "fxChildTunnel()": "972c4928",
    "fxRoot()": "de9b771f",
    "latestData()": "142bc2ae",
    "onDelegationCanceled(uint256)": "4c135a51",
    "owner()": "8da5cb5b",
    "processedExits(bytes32)": "607f2d42",
    "receiveMessage(bytes)": "f953cec7",
    "renounceOwnership()": "715018a6",
    "setFUBI(address)": "36c27273",
    "setFxChildTunnel(address)": "aea4e49e",
    "setUBI(address)": "e18709f0",
    "transferOwnership(address)": "f2fde38b"
  },
  "id": 7
}