{
  "abi": [
    {
      "inputs": [],
      "name": "InvalidAddress",
      "type": "error"
    },
    {
      "inputs": [],
      "name": "OnlyGovernance",
      "type": "error"
    },
    {
      "inputs": [],
      "name": "OnlyUBI",
      "type": "error"
    },
    {
      "inputs": [],
      "name": "UnsupportedChain",
      "type": "error"
    },
    {
      "inputs": [],
      "name": "UnsupportedNft",
      "type": "error"
    },
    {
      "anonymous": false,
      "inputs": [
        {
          "indexed": false,
          "internalType": "address",
          "name": "previousAdmin",
          "type": "address"
        },
        {
          "indexed": false,
          "internalType": "address",
          "name": "newAdmin",
          "type": "address"
        }
      ],
      "name": "AdminChanged",
      "type": "event"
    },
    {
      "anonymous": false,
      "inputs": [
        {
          "indexed": true,
          "internalType": "address",
          "name": "bridge",
          "type": "address"
        },
        {
          "indexed": true,
          "internalType": "uint256",
          "name": "chainId",
          "type": "uint256"
        },
        {
          "indexed": true,
          "internalType": "uint256",
          "name": "amount",
          "type": "uint256"
        },
        {
          "indexed": false,
          "internalType": "bytes",
          "name": "data",
          "type": "bytes"
        }
      ],
      "name": "AmountBridged",
      "type": "event"
    },
    {
      "anonymous": false,
      "inputs": [
        {
          "indexed": true,
          "internalType": "address",
          "name": "beacon",
          "type": "address"
        }
      ],
      "name": "BeaconUpgraded",
      "type": "event"
    },
    {
      "anonymous": false,
      "inputs": [
        {
          "indexed": true,
          "internalType": "uint256",
          "name": "chainId",
          "type": "uint256"
        },
        {
          "indexed": false,
          "internalType": "address",
          "name": "bridge",
          "type": "address"
        }
      ],
      "name": "BridgeSet",
      "type": "event"
    },
    {
      "anonymous": false,
      "inputs": [
        {
          "indexed": true,
          "internalType": "address",
          "name": "bridge",
          "type": "address"
        },
        {
          "indexed": true,
          "internalType": "uint256",
          "name": "chainId",
          "type": "uint256"
        },
        {
          "indexed": true,
          "internalType": "uint256",
          "name": "tokenId",
          "type": "uint256"
        },
        {
          "indexed": false,
          "internalType": "bytes",
          "name": "data",
          "type": "bytes"
        }
      ],
      "name": "FlowBridged",
      "type": "event"
    },
    {
      "anonymous": false,
      "inputs": [
        {
          "indexed": true,
          "internalType": "address",
          "name": "oldGovernance",
          "type": "address"
        },
        {
          "indexed": true,
          "internalType": "address",
          "name": "newGovernance",
          "type": "address"
        }
      ],
      "name": "GovernanceTransferred",
      "type": "event"
    },
    {
      "anonymous": false,
      "inputs": [
        {
          "indexed": false,
          "internalType": "uint8",
          "name": "version",
          "type": "uint8"
        }
      ],
      "name": "Initialized",
      "type": "event"
    },
    {
      "anonymous": false,
      "inputs": [
        {
          "indexed": true,
          "internalType": "address",
          "name": "implementation",
          "type": "address"
        }
      ],
      "name": "Upgraded",
      "type": "event"
    },
    {
      "inputs": [],
      "name": "UBI",
      "outputs": [
        {
          "internalType": "address",
          "name": "",
          "type": "address"
        }
      ],
      "stateMutability": "view",
      "type": "function"
    },
    {
      "inputs": [
        {
          "internalType": "uint256",
          "name": "_chainId",
          "type": "uint256"
        },
        {
          "internalType": "uint256",
          "name": "_amount",
          "type": "uint256"
        },
        {
          "internalType": "bytes",
          "name": "_data",
          "type": "bytes"
        }
      ],
      "name": "bridgeAmount",
      "outputs": [],
      "stateMutability": "nonpayable",
      "type": "function"
    },
    {
      "inputs": [
        {
          "internalType": "uint256",
          "name": "",
          "type": "uint256"
        }
      ],
      "name": "bridgeByChainId",
      "outputs": [
        {
          "internalType": "address",
          "name": "",
          "type": "address"
        }
      ],
      "stateMutability": "view",
      "type": "function"
    },
    {
      "inputs": [
        {
          "internalType": "uint256",
          "name": "_chainId",
          "type": "uint256"
        },
        {
          "internalType": "uint256",
          "name": "_tokenId",
          "type": "uint256"
        },
        {
          "internalType": "bytes",
          "name": "_data",
          "type": "bytes"
        }
      ],
      "name": "bridgeFlow",
      "outputs": [],
      "stateMutability": "nonpayable",
      "type": "function"
    },
    {
      "inputs": [],
      "name": "fUBI",
      "outputs": [
        {
          "internalType": "address",
          "name": "",
          "type": "address"
        }
      ],
      "stateMutability": "view",
      "type": "function"
    },
    {
      "inputs": [],
      "name": "governance",
      "outputs": [
        {
          "internalType": "address",
          "name": "",
          "type": "address"
        }
      ],
      "stateMutability": "view",
      "type": "function"
    },
    {
      "inputs": [
        {
          "internalType": "address",
          "name": "_governance",
          "type": "address"
        },
        {
          "internalType": "address",
          "name": "_UBI",
          "type": "address"
        },
        {
          "internalType": "address",
          "name": "_fUBI",
          "type": "address"
        }
      ],
      "name": "initialize",
      "outputs": [],
      "stateMutability": "nonpayable",
      "type": "function"
    },
    {
      "inputs": [
        {
          "internalType": "address",
          "name": "",
          "type": "address"
        },
        {
          "internalType": "address",
          "name": "",
          "type": "address"
        },
        {
          "internalType": "uint256",
          "name": "_tokenId",
          "type": "uint256"
        },
        {
          "internalType": "bytes",
          "name": "_data",
          "type": "bytes"
        }
      ],
      "name": "onERC721Received",
      "outputs": [
        {
          "internalType": "bytes4",
          "name": "",
          "type": "bytes4"
        }
      ],
      "stateMutability": "nonpayable",
      "type": "function"
    },
    {
      "inputs": [],
      "name": "proxiableUUID",
      "outputs": [
        {
          "internalType": "bytes32",
          "name": "",
          "type": "bytes32"
        }
      ],
      "stateMutability": "view",
      "type": "function"
    },
    {
      "inputs": [
        {
          "internalType": "uint256",
          "name": "_chainId",
          "type": "uint256"
        },
        {
          "internalType": "address",
          "name": "_bridge",
          "type": "address"
        }
      ],
      "name": "setBridge",
      "outputs": [],
      "stateMutability": "nonpayable",
      "type": "function"
    },
    {
      "inputs": [
        {
          "internalType": "address",
          "name": "_newGovernance",
          "type": "address"
        }
      ],
      "name": "transferGovernance",
      "outputs": [],
      "stateMutability": "nonpayable",
      "type": "function"
    },
    {
      "inputs": [
        {
          "internalType": "address",
          "name": "newImplementation",
          "type": "address"
        }
      ],
      "name": "upgradeTo",
      "outputs": [],
      "stateMutability": "nonpayable",
      "type": "function"
    },
    {
      "inputs": [
        {
          "internalType": "address",
          "name": "newImplementation",
          "type": "address"
        },
        {
          "internalType": "bytes",
          "name": "data",
          "type": "bytes"
        }
      ],
      "name": "upgradeToAndCall",
      "outputs": [],
      "stateMutability": "payable",
      "type": "function"
    }
  ],
  "bytecode": {
    "object": "0x60a06040523060805234801561001457600080fd5b5060805161142461004c600039600081816103b801528181610401015281816104a0015281816104e0015261056f01526114246000f3fe6080604052600436106100c25760003560e01c80635aa6e6751161007f578063cf2febd011610059578063cf2febd01461021b578063d38bfff41461023b578063d80dc6d01461025b578063faf443fc1461027b57600080fd5b80635aa6e675146101b55780637e613d59146101db578063c0c53b8b146101fb57600080fd5b8063150b7a02146100c75780632c19aed2146101055780632e0ca4741461013d5780633659cfe61461015f5780634f1ef2861461017f57806352d1902d14610192575b600080fd5b3480156100d357600080fd5b506100e76100e2366004610ef3565b6102b1565b6040516001600160e01b031990911681526020015b60405180910390f35b34801561011157600080fd5b50600354610125906001600160a01b031681565b6040516001600160a01b0390911681526020016100fc565b34801561014957600080fd5b5061015d610158366004610f62565b610316565b005b34801561016b57600080fd5b5061015d61017a366004610f8e565b6103ae565b61015d61018d36600461104c565b610496565b34801561019e57600080fd5b506101a7610562565b6040519081526020016100fc565b3480156101c157600080fd5b50600054610125906201000090046001600160a01b031681565b3480156101e757600080fd5b50600254610125906001600160a01b031681565b34801561020757600080fd5b5061015d61021636600461109a565b610615565b34801561022757600080fd5b5061015d6102363660046110dd565b6106d6565b34801561024757600080fd5b5061015d610256366004610f8e565b610810565b34801561026757600080fd5b5061015d6102763660046110dd565b610882565b34801561028757600080fd5b50610125610296366004611130565b6001602052600090815260409020546001600160a01b031681565b6003546000906001600160a01b031633036102eb576000806102d584860186611149565b915091506102e482878361092d565b5050610304565b6040516349f157c160e01b815260040160405180910390fd5b50630a85bd0160e11b95945050505050565b6000546201000090046001600160a01b031633036103915760008281526001602090815260409182902080546001600160a01b0319166001600160a01b038516908117909155915191825283917ef9c1721d242bc6035954ed38e035ecefc2f32d9f9725769bb556a7ee382057910160405180910390a25050565b6040516354348f0360e01b815260040160405180910390fd5b5050565b6001600160a01b037f00000000000000000000000000000000000000000000000000000000000000001630036103ff5760405162461bcd60e51b81526004016103f69061117a565b60405180910390fd5b7f00000000000000000000000000000000000000000000000000000000000000006001600160a01b03166104486000805160206113a8833981519152546001600160a01b031690565b6001600160a01b03161461046e5760405162461bcd60e51b81526004016103f6906111c6565b610477816109e6565b6040805160008082526020820190925261049391839190610a17565b50565b6001600160a01b037f00000000000000000000000000000000000000000000000000000000000000001630036104de5760405162461bcd60e51b81526004016103f69061117a565b7f00000000000000000000000000000000000000000000000000000000000000006001600160a01b03166105276000805160206113a8833981519152546001600160a01b031690565b6001600160a01b03161461054d5760405162461bcd60e51b81526004016103f6906111c6565b610556826109e6565b6103aa82826001610a17565b6000306001600160a01b037f000000000000000000000000000000000000000000000000000000000000000016146106025760405162461bcd60e51b815260206004820152603860248201527f555550535570677261646561626c653a206d757374206e6f742062652063616c60448201527f6c6564207468726f7567682064656c656761746563616c6c000000000000000060648201526084016103f6565b506000805160206113a883398151915290565b60006106216001610b87565b90508015610639576000805461ff0019166101001790555b600080546001600160a01b03808716620100000262010000600160b01b031990921691909117909155600280548583166001600160a01b031991821617909155600380549285169290911691909117905580156106d0576000805461ff0019169055604051600181527f7f26b83ff96e1f2b6a682f133852f6798a09c465da95921460cefb38474024989060200160405180910390a15b50505050565b6002546040516323b872dd60e01b8152336004820152306024820152604481018590526001600160a01b03909116906323b872dd906064016020604051808303816000875af115801561072d573d6000803e3d6000fd5b505050506040513d601f19601f820116820180604052508101906107519190611212565b50600061075d85610c14565b604051630cf2febd60e41b81529091506001600160a01b0382169063cf2febd09061079290889088908890889060040161125d565b600060405180830381600087803b1580156107ac57600080fd5b505af11580156107c0573d6000803e3d6000fd5b505050508385826001600160a01b03167f99a12365d01b3182185a1950375cefc84ea8c87a7a3a04bc0381dceb5a7a4db1868660405161080192919061127d565b60405180910390a45050505050565b6000546201000090046001600160a01b03163303610391576000805462010000600160b01b031916620100006001600160a01b0384811682810293909317808555604051939492900416917f5f56bee8cffbe9a78652a74a60705edede02af10b0bbb888ca44b79a0d42ce809190a350565b6003546040516323b872dd60e01b8152336004820152306024820152604481018590526001600160a01b03909116906323b872dd90606401600060405180830381600087803b1580156108d457600080fd5b505af11580156108e8573d6000803e3d6000fd5b505050506106d0848484848080601f01602080910402602001604051908101604052809392919081815260200183838082843760009201919091525061092d92505050565b600061093884610c14565b604051630d80dc6d60e41b81529091506001600160a01b0382169063d80dc6d09061096b908790879087906004016112e9565b600060405180830381600087803b15801561098557600080fd5b505af1158015610999573d6000803e3d6000fd5b505050508284826001600160a01b03167f3e4cc00ec1106ddaa5c2c3bb53737b56ccf85951e7dc2984be94d6a460fdc64d856040516109d89190611311565b60405180910390a450505050565b6000546201000090046001600160a01b03163314610493576040516354348f0360e01b815260040160405180910390fd5b7f4910fdfa16fed3260ed0e7147f7cc6da11a60208b5b9406d12a635614ffd91435460ff1615610a4f57610a4a83610c50565b505050565b826001600160a01b03166352d1902d6040518163ffffffff1660e01b8152600401602060405180830381865afa925050508015610aa9575060408051601f3d908101601f19168201909252610aa691810190611324565b60015b610b0c5760405162461bcd60e51b815260206004820152602e60248201527f45524331393637557067726164653a206e657720696d706c656d656e7461746960448201526d6f6e206973206e6f74205555505360901b60648201526084016103f6565b6000805160206113a88339815191528114610b7b5760405162461bcd60e51b815260206004820152602960248201527f45524331393637557067726164653a20756e737570706f727465642070726f786044820152681a58589b195555525160ba1b60648201526084016103f6565b50610a4a838383610cec565b60008054610100900460ff1615610bce578160ff166001148015610baa5750303b155b610bc65760405162461bcd60e51b81526004016103f69061133d565b506000919050565b60005460ff808416911610610bf55760405162461bcd60e51b81526004016103f69061133d565b506000805460ff191660ff92909216919091179055600190565b919050565b6000818152600160205260408120546001600160a01b031680610c4a5760405163d21eab3760e01b815260040160405180910390fd5b92915050565b6001600160a01b0381163b610cbd5760405162461bcd60e51b815260206004820152602d60248201527f455243313936373a206e657720696d706c656d656e746174696f6e206973206e60448201526c1bdd08184818dbdb9d1c9858dd609a1b60648201526084016103f6565b6000805160206113a883398151915280546001600160a01b0319166001600160a01b0392909216919091179055565b610cf583610d11565b600082511180610d025750805b15610a4a576106d08383610d51565b610d1a81610c50565b6040516001600160a01b038216907fbc7cd75a20ee27fd9adebab32041f755214dbc6bffa90cc0225b39da2e5c2d3b90600090a250565b6060610d7683836040518060600160405280602781526020016113c860279139610d7d565b9392505050565b60606001600160a01b0384163b610de55760405162461bcd60e51b815260206004820152602660248201527f416464726573733a2064656c65676174652063616c6c20746f206e6f6e2d636f6044820152651b9d1c9858dd60d21b60648201526084016103f6565b600080856001600160a01b031685604051610e00919061138b565b600060405180830381855af49150503d8060008114610e3b576040519150601f19603f3d011682016040523d82523d6000602084013e610e40565b606091505b5091509150610e50828286610e5a565b9695505050505050565b60608315610e69575081610d76565b825115610e795782518084602001fd5b8160405162461bcd60e51b81526004016103f69190611311565b80356001600160a01b0381168114610c0f57600080fd5b60008083601f840112610ebc57600080fd5b50813567ffffffffffffffff811115610ed457600080fd5b602083019150836020828501011115610eec57600080fd5b9250929050565b600080600080600060808688031215610f0b57600080fd5b610f1486610e93565b9450610f2260208701610e93565b935060408601359250606086013567ffffffffffffffff811115610f4557600080fd5b610f5188828901610eaa565b969995985093965092949392505050565b60008060408385031215610f7557600080fd5b82359150610f8560208401610e93565b90509250929050565b600060208284031215610fa057600080fd5b610d7682610e93565b634e487b7160e01b600052604160045260246000fd5b600082601f830112610fd057600080fd5b813567ffffffffffffffff80821115610feb57610feb610fa9565b604051601f8301601f19908116603f0116810190828211818310171561101357611013610fa9565b8160405283815286602085880101111561102c57600080fd5b836020870160208301376000602085830101528094505050505092915050565b6000806040838503121561105f57600080fd5b61106883610e93565b9150602083013567ffffffffffffffff81111561108457600080fd5b61109085828601610fbf565b9150509250929050565b6000806000606084860312156110af57600080fd5b6110b884610e93565b92506110c660208501610e93565b91506110d460408501610e93565b90509250925092565b600080600080606085870312156110f357600080fd5b8435935060208501359250604085013567ffffffffffffffff81111561111857600080fd5b61112487828801610eaa565b95989497509550505050565b60006020828403121561114257600080fd5b5035919050565b6000806040838503121561115c57600080fd5b82359150602083013567ffffffffffffffff81111561108457600080fd5b6020808252602c908201527f46756e6374696f6e206d7573742062652063616c6c6564207468726f7567682060408201526b19195b1959d85d1958d85b1b60a21b606082015260800190565b6020808252602c908201527f46756e6374696f6e206d7573742062652063616c6c6564207468726f7567682060408201526b6163746976652070726f787960a01b606082015260800190565b60006020828403121561122457600080fd5b81518015158114610d7657600080fd5b81835281816020850137506000828201602090810191909152601f909101601f19169091010190565b848152836020820152606060408201526000610e50606083018486611234565b602081526000611291602083018486611234565b949350505050565b60005b838110156112b457818101518382015260200161129c565b50506000910152565b600081518084526112d5816020860160208601611299565b601f01601f19169290920160200192915050565b83815282602082015260606040820152600061130860608301846112bd565b95945050505050565b602081526000610d7660208301846112bd565b60006020828403121561133657600080fd5b5051919050565b6020808252602e908201527f496e697469616c697a61626c653a20636f6e747261637420697320616c72656160408201526d191e481a5b9a5d1a585b1a5e995960921b606082015260800190565b6000825161139d818460208701611299565b919091019291505056fe360894a13ba1a3210667c828492db98dca3e2076cc3735a920a3ca505d382bbc416464726573733a206c6f772d6c6576656c2064656c65676174652063616c6c206661696c6564a2646970667358221220c34996dec947c16cfb2ae95972b1fd8e84b2823017e76c976e116d6ed6b493fd64736f6c63430008110033",
    "linkReferences": {}
  },
  "methodIdentifiers": {
    "UBI()": "7e613d59",
    "bridgeAmount(uint256,uint256,bytes)": "cf2febd0",
    "bridgeByChainId(uint256)": "faf443fc",
    "bridgeFlow(uint256,uint256,bytes)": "d80dc6d0",
    "fUBI()": "2c19aed2",
    "governance()": "5aa6e675",
    "initialize(address,address,address)": "c0c53b8b",
    "onERC721Received(address,address,uint256,bytes)": "150b7a02",
    "proxiableUUID()": "52d1902d",
    "setBridge(uint256,address)": "2e0ca474",
    "transferGovernance(address)": "d38bfff4",
    "upgradeTo(address)": "3659cfe6",
    "upgradeToAndCall(address,bytes)": "4f1ef286"
  },
  "id": 0
}